:103C000011241FBEA89584B7877F84BFE0E6F0E04B
:103C10008081886180831082CDB7DEB7C058D1091A
:103C2000DEBFCDBF1092C4001092C00088E1809327
:103C3000C10086E08093C20010E085E084BD219A37
:103C4000299A712C212C00E0E12CF12C812C912C53
:103C50003FE3332E44244394CE0101966C0141E1AD
:103C6000542EA89B1FC0A89A772091F0239499E521
:103C70009215C0F480E09091C00095FFFCCF809336
:103C8000C6008F5F8038B9F788E080936000FFCF6F
:103C90000F5F0C3338F014BC1092C1001092C200B8
:103CA000F40109958091C00087FFE0C0299A299806
:103CB0008091C600813509F4CBC0F0F4853409F455
:103CC000ACC050F4813409F455C0823409F480C08A
:103CD0008B3109F0C1C0C7C08C3409F4B5C028F4D9
:103CE000863409F0B9C080E0B4C08E3409F4AEC0A7
:103CF000803509F4A9C0B0C0853609F48BC058F5E9
:103D0000843509F497C0C8F4833509F0A5C086E46A
:103D10000E946F1F84E40E946F1F88E70E946F1F3C
:103D200082E40E946F1F8FE60E946F1F8FE60E9441
:103D30006F1F84E70E946F1F96C0863509F47DC00F
:103D4000823609F089C089E50E946F1F80E00E94D9
:103D50006F1F80E86CC0803709F474C018F4873690
:103D6000F9F07AC0833709F45BC0843709F074C076
:103D700080E05DC08091C00087FFFCCF8091C600CD
:103D80009091C00097FFFCCFE090C600F12CF82A7C
:103D90008091C00085FFFCCF8DE08093C60065C098
:103DA0008091C00087FFFCCF8091C6008091C00049
:103DB00087FFFCCF6091C6008091C00087FFFCCFD9
:103DC0004091C600C701880F991F0E947D1F4DC0FA
:103DD0008091C00087FFFCCF8091C6008091C00019
:103DE00087FFFCCF6090C6008091C00087FFFCCFAA
:103DF0008091C60056018A2D8C19861530F40E94D8
:103E0000761FF50181935F01F6CF5701AA0CBB1C09
:103E100011602BC00E94AD1F28C00E94C11F25C089
:103E200085E00E946F1F84E90E946F1F8EE10E944F
:103E30006F1F1BC00E94761F07C081E30E946F1F87
:103E400086E3F5CF83E5F3CF8DE0F1CF83E001C0CA
:103E500082E00E94A51FEBCF8091C00085FFFCCFC0
:103E60003092C60002C077247394212C299A11FF46
:103E70000BC007B600FE05C010FF06C007B600FC69
:103E8000FDCF57BEE8951D7F10FFEBCE11FDE9CEAB
:103E900080E08615B0F4A82FB0E0F601EA0FFB1F12
:103EA0009081E2E0F0E0EC0FFD1FEA0FFB1F2081A4
:103EB000FD01092E122E40925700E89511248E5FC5
:103EC000E8CFF50185E087BFE89512601E7F8091FD
:103ED000C00085FFFCCF8DE08093C600C2CE9091DC
:103EE000C00095FFFCCF8093C60008958091C0006C
:103EF00087FFFCCF8091C600089507B600FE06C07C
:103F000007B600FCFDCF21E127BFE895FC0180E06A
:103F1000861749F095912091C00025FFFCCF909322
:103F2000C6008F5FF5CF8091C1008F7E8093C10066
:103F30008091C10080618093C10008958FEF0000DF
:103F4000000000008150D9F7089599E0FF27E82F7D
:103F500090935700C895802D0895E0E0F0E083E04D
:103F600007B600FCFDCF87BFE89507B600FCFDCF84
:103F7000E058FF4FE1159CE3F90791F78DE00C94B1
:103F80006F1F8DE00E946F1F8DE00E946F1F809158
:103F9000C00085FFFCCF14BC1092C1001092C2007B
:083FA000E0E0F0E0099508954E
:0400000300003C00BD
:00000001FF
