:101C000011241FBEA89584B7877F84BF81B58861E2
:101C100081BD11BCCDB7DEB7C054D109DEBFCDBF89
:101C200081E089B91BB888E18AB986E880BD10E0F7
:101C300085E083BFB99AC19A712C212C00E0E12C78
:101C4000F12C812C912C33243394CE0101966C011C
:101C500031E1532E45E0442E08B600FE1BC088B784
:101C6000816088BF772071F0239497E7921590F4F4
:101C700080E05D9BFECF8CB98F5F8038D1F788E024
:101C800081BDFFCF0F5F0C3328F013BE1AB810BC14
:101C9000F40109955F9BAEC0C19AC1988CB18135A2
:101CA00009F49DC0F0F4853409F484C050F4813403
:101CB00009F44BC0823409F463C08B3109F092C03F
:101CC00096C08C3409F487C028F4863409F08AC0A1
:101CD00080E086C08E3409F480C0803509F47BC072
:101CE00081C0853609F464C010F5843509F46BC0F1
:101CF00090F4833509F076C086E4B1D084E4AFD0A7
:101D000088E7ADD082E4ABD08FE6A9D08FE6A7D02C
:101D100084E7A5D06CC0863509F457C0823609F037
:101D200061C089E59CD080E09AD080E44AC08037C9
:101D300009F44FC018F48736A9F054C08337E1F195
:101D4000843709F04FC080E03CC05F9BFECF8CB170
:101D50005F9BFECFECB0F12CF82A5D9BFECF8DE0AF
:101D60008CB947C05F9BFECF8CB15F9BFECF6CB13F
:101D70005F9BFECF4CB1C701880F991F78D039C047
:101D80005F9BFECF8CB15F9BFECF6CB05F9BFECFA5
:101D90008CB156018A2D8C19861528F464D0F50172
:101DA00081935F01F7CF5701AA0CBB1C116021C0C2
:101DB00083D01FC094D01DC087E051D083E94FD09D
:101DC0008EE14DD016C04FD006C081E348D086E3E7
:101DD000F8CF83E5F6CF8DE0F4CF83E001C082E059
:101DE00063D0EFCF5D9BFECFFFE3FCB902C0772449
:101DF0007394212CC19A11FF0BC007B600FE05C0D9
:101E000010FF06C007B600FCFDCF57BEE8951D7F4A
:101E100010FF22CF11FD20CF80E08615B0F4A82F4F
:101E2000B0E0F601EA0FFB1F9081E2E0F0E0EC0F7A
:101E3000FD1FEA0FFB1F2081FD01092E122E30929B
:101E40005700E89511248E5FE8CFF50147BEE8956D
:101E500012601E7F5D9BFECF8DE08CB9FDCE5D9B39
:101E6000FECF8CB908955F9BFECF8CB1089507B665
:101E700000FE06C007B600FCFDCF21E127BFE895B4
:101E8000FC0180E0861731F095915D9BFECF9CB9F7
:101E90008F5FF8CF5498549A08958FEF0000000098
:101EA00000008150D9F7089599E0FF27E82F90931B
:101EB0005700C895802D0895E0E0F0E083E007B674
:101EC00000FCFDCF87BFE89507B600FCFDCFE05CC6
:101ED000FF4FE1159CE1F90791F78DE0C0CF8DE050
:101EE000BEDF8DE0BCDF5D9BFECF13BE1AB810BC19
:081EF000E0E0F0E0099508951F
:0400000300001C00DD
:00000001FF
