:103C000011241FBEA89584B7877F84BF81B58861C2
:103C100081BD11BCCDB7DEB7C058D109DEBFCDBF65
:103C200081E089B91BB888E18AB986E880BD10E0D7
:103C300085E083BFB99AC19A712C212C00E0E12C58
:103C4000F12C812C912C33243394CE0101966C01FC
:103C500031E1532E45E0442E08B600FE1BC088B764
:103C6000816088BF772071F023949BE3921590F4D4
:103C700080E05D9BFECF8CB98F5F8038D1F788E004
:103C800081BDFFCF0F5F0E3128F013BE1AB810BCF4
:103C9000F40109955F9BC2C0C19AC1988CB181356E
:103CA00009F4B0C0F0F4853409F491C050F48134C3
:103CB00009F455C0823409F46EC08B3109F0A6C0F6
:103CC000AAC08C3409F49AC028F4863409F09EC046
:103CD00080E099C08E3409F493C0803509F48EC019
:103CE00095C0853609F470C058F5843509F47CC058
:103CF000C8F4833509F08AC086E40E94431F84E437
:103D00000E94431F88E70E94431F82E40E94431FD2
:103D10008FE60E94431F8FE60E94431F84E70E94A4
:103D2000431F79C0863509F462C0823609F06EC03F
:103D300089E50E94431F80E00E94431F80E851C034
:103D4000803709F459C018F48736B1F05FC0833763
:103D500009F440C0843709F059C080E042C05F9B3D
:103D6000FECF8CB15F9BFECFECB0F12CF82A5D9BAF
:103D7000FECF8DE08CB951C05F9BFECF8CB15F9BB5
:103D8000FECF6CB15F9BFECF4CB1C701880F991F6E
:103D90000E944B1F42C05F9BFECF8CB15F9BFECF4A
:103DA0006CB05F9BFECF8CB156018A2D8C198615A5
:103DB00030F40E94471FF50181935F01F6CF570150
:103DC000AA0CBB1C116029C00E94701F26C00E9453
:103DD000841F23C083E00E94431F84E90E94431F85
:103DE0008EE10E94431F19C00E94471F07C081E354
:103DF0000E94431F86E3F5CF83E5F3CF8DE0F1CF3B
:103E000083E001C082E00E94681FEBCF5D9BFECF84
:103E1000FFE3FCB902C077247394212CC19A11FFEF
:103E20000BC007B600FE05C010FF06C007B600FCB9
:103E3000FDCF57BEE8951D7F10FF0ECF11FD0CCFB3
:103E400080E08615B0F4A82FB0E0F601EA0FFB1F62
:103E50009081E2E0F0E0EC0FFD1FEA0FFB1F2081F4
:103E6000FD01092E122E30925700E89511248E5F25
:103E7000E8CFF50147BEE89512601E7F5D9BFECF3F
:103E80008DE08CB9E9CE5D9BFECF8CB908955F9B28
:103E9000FECF8CB1089507B600FE06C007B600FC41
:103EA000FDCF21E127BFE895FC0180E0861731F0C6
:103EB00095915D9BFECF9CB98F5FF8CF5498549A33
:103EC00008958FEF0000000000008150D9F7089599
:103ED00099E0FF27E82F90935700C895802D08950B
:103EE000E0E0F0E083E007B600FCFDCF87BFE89597
:103EF00007B600FCFDCFE058FF4FE1159CE3F90742
:103F000091F78DE00C94431F8DE00E94431F8DE0DC
:103F10000E94431F5D9BFECF13BE1AB810BCE0E0A9
:063F2000F0E00995089590
:0400000300003C00BD
:00000001FF
