:103C000011241FBE04E00EBF0FEF0DBFA89584B7AF
:103C1000877F84BFE0E6F0E0808188618083108246
:103C2000CDB7DEB7C058D109DEBFCDBF81E08093EC
:103C3000C4001092C00088E18093C10086E08093A8
:103C4000C20000E085E084BD10E031E1832ECE01AA
:103C500001966C0177247394A89B0EC0A89A1F5FED
:103C600002FF06C0183741F488E080936000FFCF60
:103C70001C3311F40E94B81F8091C00087FF8EC0D2
:103C80009091C600913509F411C1F8F4953409F406
:103C9000ECC050F4913409F46AC0923409F4B2C013
:103CA0009B3151F40460DFC09C3409F467C030F4E8
:103CB00080E0963409F4F7C08FE356C09E3409F4CF
:103CC000F1C09035C9F7046059C0953609F4C9C0F0
:103CD00048F5943509F4DCC0C0F4933569F786E4FF
:103CE0000E945E1F84E40E945E1F88E70E945E1FA0
:103CF00082E40E945E1F8FE60E945E1F8FE60E9494
:103D00005E1F84E70E945E1FCDCF963509F4C3C0C5
:103D1000923691F689E50E945E1F80E00E945E1F48
:103D200080E822C0903709F4BBC0B8F4973621F67A
:103D30000E94651F182F0E94651F682E0E94651F34
:103D4000863409F05BC0111104C08FEF860D87FF28
:103D500017C088E080936000FFCF933709F490C0CC
:103D600080E0943709F0A8CF0E945E1F7CC00E94BB
:103D7000651FE82E0E94651FFE2CE82E8DE0F4CF13
:103D800001FF06C007B600FCFDCF87BEE8950D7F9A
:103D9000662DC701880F991F0E946C1F01FF06C086
:103DA00007B600FC85C087BEE8950D7F00FF54CFA5
:103DB00001FD52CF80E0A82FB0E0F601EA0FFB1F13
:103DC0009081E2E0F0E0EC0FFD1FEA0FFB1F208185
:103DD000FD01092E122E70925700E89511248E5F76
:103DE000891548F385E0D501FD0180935700E895DA
:103DF00002600E7F8DE00E945E1F2ECF88E08093D0
:103E00006000FFCF0E94651F182F0E94651F982E2B
:103E10000E94651F863409F55701AA0CBB1C1111BD
:103E20000AC08FEF890D87FD06C090FC04C0A11465
:103E30009CE3B90620F088E080936000FFCFF60194
:103E40008091C00087FFFCCF8091C60081938E2FA8
:103E50008C198915A8F30160A1CF88E080936000D8
:103E6000FFCF0E94821F10E099CF01FF06C007B666
:103E700000FCFDCF87BEE8950D7F0E94B81FF3CFF1
:103E800085E00E945E1F84E90E945E1F8EE16CCF78
:103E90000E94651F73CF81E30E945E1F87E364CF9A
:103EA00083E562CF83E00E947A1F5ECF82E0FBCF82
:103EB00000FF7CCF07B600FCFDCF75CF9091C0000E
:103EC00095FFFCCF8093C60008958091C00087FFC6
:103ED000FCCF8091C6000895FC0180E0861301C0EC
:103EE000089595912091C00025FFFCCF9093C600C6
:103EF0008F5FF4CF99E0FF27E82F90935700C89584
:103F0000802D089507B606FE06C007B600FCFDCF5B
:103F100081E187BFE89590E080E050E063E05111D7
:103F20001CC030E020E0FC01E20FF31F44912F5F42
:103F30003F4F4F3F91F420383105A9F780589F4FEC
:103F40008115FCE39F0759F707B606FE03C081E120
:103F500087BFE8958DE00C945E1F07B600FCFDCF8F
:103F6000FC0167BFE89507B600FCFDCF51E0E6CF46
:103F70008DE00E945E1F8DE00E945E1F8091C00058
:103F800085FFFCCF14BC1092C1001092C200F0E07B
:063F9000E0E00995089530
:0400000300003C00BD
:00000001FF
