:107C000011241FBE08E00EBF0FE50DBFA89584B775
:107C1000877F84BF81B5886181BD11BCCDB7DEB7D8
:107C2000C058D109DEBFCDBF19B81BB888E18AB9E9
:107C300086E880BD00E085E083BF10E031E1832E5F
:107C4000CE0101966C016624639445E0742E08B65B
:107C500000FE0FC088B7816088BF1F5F02FF05C0AC
:107C6000183339F488E081BDFFCF1C3111F40E9434
:107C7000A13F5F9B8CC09CB1913509F409C1F8F418
:107C8000953409F4E4C050F4913409F469C0923495
:107C900009F4AFC09B3151F40460D7C09C3409F49F
:107CA00066C030F480E0963409F4EFC08FE355C02D
:107CB0009E3409F4E9C09035C9F7046058C0953680
:107CC00009F4C1C048F5943509F4D4C0C0F4933523
:107CD00069F786E40E94503F84E40E94503F88E7A1
:107CE0000E94503F82E40E94503F8FE60E94503F26
:107CF0008FE60E94503F84E70E94503FCDCF9635DB
:107D000009F4BBC0923691F689E50E94503F80E0AD
:107D10000E94503F80E821C0903709F4B3C0B0F40E
:107D2000973621F60E94543F182F0E94543F582E38
:107D30000E94543F863409F059C0111104C08FEFDE
:107D4000850D87FF16C088E081BDFFCF933709F40A
:107D500089C080E0943709F0A9CF0E94503F75C0D8
:107D60000E94543FE82E0E94543FFE2CE82E8DE0E6
:107D7000F4CF01FF06C007B600FCFDCF87BEE89533
:107D80000D7F652DC701880F991F0E94583F01FF85
:107D900006C007B600FC7EC087BEE8950D7F00FFD9
:107DA00056CF01FD54CF80E0A82FB0E0F601EA0FD6
:107DB000FB1F9081E2E0F0E0EC0FFD1FEA0FFB1FDC
:107DC0002081FD01092E122E60925700E8951124A2
:107DD0008E5F891548F3D501FD0170925700E89533
:107DE00002600E7F8DE00E94503F31CF88E081BD60
:107DF000FFCF0E94543F182F0E94543F982E0E949C
:107E0000543F8634E9F45701AA0CBB1C11110AC077
:107E10008FEF890D87FD06C090FC04C0A1149CE77C
:107E2000B90618F088E081BDFFCFF6015F9BFECF59
:107E30008CB181938E2F8C198915C0F30160A7CF67
:107E400088E081BDFFCF0E946B3F10E0A0CF01FF13
:107E500006C007B600FCFDCF87BEE8950D7F0E94E7
:107E6000A13FF3CF82E00E94503F85E90E94503F3E
:107E70008EE173CF0E94543F7ACF81E30E94503F3E
:107E800087E36BCF83E569CF83E00E94633F65CFD3
:107E900082E0FBCF00FF83CF07B600FCFDCF7CCF95
:107EA0005D9BFECF8CB908955F9BFECF8CB108958A
:107EB000FC0180E0861301C0089595915D9BFECF83
:107EC0009CB98F5FF7CF99E0FF27E82F9093570079
:107ED000C895802D089507B606FE06C007B600FCBB
:107EE000FDCF81E187BFE89590E080E050E063E05E
:107EF00051111CC030E020E0FC01E20FF31F44915F
:107F00002F5F3F4F4F3F91F420383105A9F780583C
:107F10009F4F8115FCE79F0759F707B606FE03C080
:107F200081E187BFE8958DE00C94503F07B600FCD7
:107F3000FDCFFC0167BFE89507B600FCFDCF51E01F
:107F4000E6CF8DE00E94503F8DE00E94503F5D9B48
:107F5000FECF13BE1AB810BCF0E0E0E0099508951A
:0400000300007C007D
:00000001FF
