:101C000011241FBE04E00EBF0FEF0DBFA89584B7CF
:101C1000877F84BFE0E6F0E0808188618083108266
:101C2000CDB7DEB7C054D109DEBFCDBF81E0809310
:101C3000C4001092C00088E18093C10086E08093C8
:101C4000C20000E085E085BD10E031E1832ECE01C9
:101C500001966C016624639445E0742EA89B0DC028
:101C6000A89A1F5F02FF06C0183339F488E08093FA
:101C70006000FFCF1C3109F45FD18091C00087FF65
:101C80007EC09091C600913509F4F5C0F8F4953402
:101C900009F4D6C050F4913409F45DC0923409F4CB
:101CA000A0C09B3151F40460C9C09C3409F458C0F1
:101CB00030F480E0963409F4DCC08FE34AC09E34EF
:101CC00009F4D6C09035C9F704604AC0953609F4C6
:101CD000B4C000F5943509F4C3C088F4933569F7AE
:101CE00086E4D1D084E4CFD088E7CDD082E4CBD0D5
:101CF0008FE6C9D08FE6C7D084E7C5D0D4CF96355C
:101D000009F4B0C09236C9F689E5BDD080E0BBD0F9
:101D100080E41FC0903709F4A9C0A0F4973669F693
:101D2000B9D0182FB7D0582EB5D0863409F055C089
:101D3000111104C08FEF850D8034A0F088E08093EE
:101D40006000FFCF933709F485C080E0943709F035
:101D5000B4CF99D073C09ED0E82E9CD0FE2CE82E34
:101D60008DE0F7CF01FF06C007B600FCFDCF87BEB0
:101D7000E8950D7F652DC701880F991F92D001FF4F
:101D800006C007B600FC79C087BEE8950D7F00FF4E
:101D900065CF01FD63CF80E0A82FB0E0F601EA0F28
:101DA000FB1F9081E2E0F0E0EC0FFD1FEA0FFB1F4C
:101DB0002081FD01092E122E60925700E895112412
:101DC0008E5F891548F3D501FD0170925700E895A3
:101DD00002600E7F8DE057D041CF88E08093600095
:101DE000FFCF58D0182F56D0982E54D0863409F5EE
:101DF0005701AA0CBB1C11110AC08FEF890D80344A
:101E000030F490FC04C0A1149CE1B90620F088E0F5
:101E100080936000FFCFF6018091C00087FFFCCF68
:101E20008091C60081938E2F8C198915A8F30160CB
:101E3000A6CF88E080936000FFCF49D010E09FCF0D
:101E400001FF06C007B600FCFDCF87BEE8950D7FF9
:101E500073D0F4CF8AE017D083E915D08EE179CF23
:101E600019D07ECF81E30FD087E373CF83E571CFA5
:101E700083E025D06ECF82E0FCCF00FF88CF07B68D
:101E800000FCFDCF81CF9091C00095FFFCCF8093E7
:101E9000C60008958091C00087FFFCCF8091C600E6
:101EA0000895FC0180E0861301C00895959120916A
:101EB000C00025FFFCCF9093C6008F5FF4CF99E060
:101EC000FF27E82F90935700C895802D089507B6F7
:101ED00006FE06C007B600FCFDCF81E187BFE8958E
:101EE00090E080E050E063E051111BC030E020E062
:101EF000F901E80FF91F44914F3F99F42F5F3F4FCD
:101F000020343105A9F7805C9F4F8115FCE19F07C4
:101F100059F707B606FE03C081E187BFE8958DE05B
:101F2000B2CF07B600FCFDCFFC0167BFE89507B64E
:101F300000FCFDCF51E0E7CF8DE0A5DF8DE0A3DF12
:101F40008091C00085FFFCCF15BC1092C10010929B
:0A1F5000C200F0E0E0E009950895FA
:0400000300001C00DD
:00000001FF
