:103C000011241FBE04E00EBF0FE50DBFA89584B7B9
:103C1000877F84BF81B5886181BD11BCCDB7DEB718
:103C2000C058D109DEBFCDBF19B882E08BB988E199
:103C30008AB986E880BD00E085E083BF10E031E10D
:103C4000832ECE0101966C016624639445E0742EA8
:103C500008B600FE0FC088B7816088BF1F5F02FFF3
:103C600005C0183739F488E081BDFFCF1C3311F44B
:103C70000E94B31F5F9B8CC09CB1913509F409C1B0
:103C8000F8F4953409F4E4C050F4913409F469C0AF
:103C9000923409F4AFC09B3151F40460D7C09C3416
:103CA00009F466C030F480E0963409F4EFC08FE385
:103CB00055C09E3409F4E9C09035C9F7046058C076
:103CC000953609F4C1C048F5943509F4D4C0C0F460
:103CD000933569F786E40E94511F84E40E94511FC6
:103CE00088E70E94511F82E40E94511F8FE60E94C4
:103CF000511F8FE60E94511F84E70E94511FCDCFB4
:103D0000963509F4BBC0923691F689E50E94511FA1
:103D100080E00E94511F80E821C0903709F4B3C0B1
:103D2000B0F4973621F60E94551F182F0E94551F98
:103D3000582E0E94551F863409F059C0111104C035
:103D40008FEF850D87FF16C088E081BDFFCF9337C9
:103D500009F489C080E0943709F0A9CF0E94511F6F
:103D600075C00E94551FE82E0E94551FFE2CE82E9C
:103D70008DE0F4CF01FF06C007B600FCFDCF87BE83
:103D8000E8950D7F652DC701880F991F0E945F1F61
:103D900001FF06C007B600FC7EC087BEE8950D7F18
:103DA00000FF56CF01FD54CF80E0A82FB0E0F60110
:103DB000EA0FFB1F9081E2E0F0E0EC0FFD1FEA0F3D
:103DC000FB1F2081FD01092E122E60925700E895FD
:103DD00011248E5F891548F3D501FD0170925700BB
:103DE000E89502600E7F8DE00E94511F31CF88E080
:103DF00081BDFFCF0E94551F182F0E94551F982E7E
:103E00000E94551F8634E9F45701AA0CBB1C1111FE
:103E10000AC08FEF890D87FD06C090FC04C0A11475
:103E20009CE3B90618F088E081BDFFCFF6015F9BE7
:103E3000FECF8CB181938E2F8C198915C0F3016050
:103E4000A7CF88E081BDFFCF0E947D1F10E0A0CFEB
:103E500001FF06C007B600FCFDCF87BEE8950D7FC9
:103E60000E94B31FF3CF83E00E94511F84E90E9498
:103E7000511F8EE173CF0E94551F7ACF81E30E94BC
:103E8000511F87E36BCF83E569CF83E00E94751FE5
:103E900065CF82E0FBCF00FF83CF07B600FCFDCFEC
:103EA0007CCF5D9BFECF8CB908955F9BFECF8CB11C
:103EB000089580E293E000000197E9F70895CF9319
:103EC000DF93D62FFC01C0E0CD1303C0DF91CF916B
:103ED000089585915D9BFECF8CB98C2F8F798F31A2
:103EE00011F40E94591FCF5FEFCF99E0FF27E82F11
:103EF00090935700C895802D089507B606FE06C01A
:103F000007B600FCFDCF81E187BFE89590E080E037
:103F100050E063E051111CC030E020E0FC01E20FF2
:103F2000F31F44912F5F3F4F4F3F91F420383105ED
:103F3000A9F780589F4F8115FCE39F0759F707B6F3
:103F400006FE03C081E187BFE8958DE00C94511F08
:103F500007B600FCFDCFFC0167BFE89507B600FC83
:103F6000FDCF51E0E6CF8DE00E94511F8DE00E9411
:103F7000511F5D9BFECF13BE1AB810BCF0E0E0E00D
:043F80000995089502
:0400000300003C00BD
:00000001FF
