:103C000011241FBE04E00EBF0FEF0DBFA89584B7AF
:103C1000877F84BFE0E6F0E0808188618083108246
:103C2000CDB7DEB7C058D109DEBFCDBF1092C400FA
:103C30001092C00088E18093C10086E08093C200AA
:103C400000E085E085BD10E031E1832ECE010196D4
:103C50006C016624639445E0742EA89B0EC0A89A5C
:103C60001F5F02FF06C0183741F488E080936000B0
:103C7000FFCF1C3311F40E94B81F8091C00087FF52
:103C80008EC09091C600913509F410C1F8F49534B6
:103C900009F4EBC050F4913409F46AC0923409F489
:103CA000B1C09B3151F40460DEC09C3409F467C09C
:103CB00030F480E0963409F4F6C08FE356C09E34A9
:103CC00009F4F0C09035C9F7046059C0953609F47D
:103CD000C8C048F5943509F4DBC0C0F4933569F7E2
:103CE00086E40E945E1F84E40E945E1F88E70E94B3
:103CF0005E1F82E40E945E1F8FE60E945E1F8FE6B9
:103D00000E945E1F84E70E945E1FCDCF963509F4A6
:103D1000C2C0923691F689E50E945E1F80E00E9443
:103D20005E1F80E822C0903709F4BAC0B8F4973615
:103D300021F60E94651F182F0E94651F582E0E94B1
:103D4000651F863409F05AC0111104C08FEF850D2C
:103D500087FF17C088E080936000FFCF933709F496
:103D60008FC080E0943709F0A8CF0E945E1F7BC00F
:103D70000E94651FE82E0E94651FFE2CE82E8DE034
:103D8000F4CF01FF06C007B600FCFDCF87BEE89563
:103D90000D7F652DC701880F991F0E946C1F01FFC1
:103DA00006C007B600FC84C087BEE8950D7F00FF03
:103DB00054CF01FD52CF80E0A82FB0E0F601EA0F0A
:103DC000FB1F9081E2E0F0E0EC0FFD1FEA0FFB1F0C
:103DD0002081FD01092E122E60925700E8951124D2
:103DE0008E5F891548F3D501FD0170925700E89563
:103DF00002600E7F8DE00E945E1F2FCF88E08093CF
:103E00006000FFCF0E94651F182F0E94651F982E2B
:103E10000E94651F863409F55701AA0CBB1C1111BD
:103E20000AC08FEF890D87FD06C090FC04C0A11465
:103E30009CE3B90620F088E080936000FFCFF60194
:103E40008091C00087FFFCCF8091C60081938E2FA8
:103E50008C198915A8F30160A2CF88E080936000D7
:103E6000FFCF0E94821F10E09ACF01FF06C007B665
:103E700000FCFDCF87BEE8950D7F0E94B81FF3CFF1
:103E800086E00E945E1F84E90E945E1F8EE16DCF76
:103E90000E94651F74CF81E30E945E1F87E365CF98
:103EA00083E563CF83E00E947A1F5FCF82E0FBCF80
:103EB00000FF7DCF07B600FCFDCF76CF9091C0000C
:103EC00095FFFCCF8093C60008958091C00087FFC6
:103ED000FCCF8091C6000895FC0180E0861301C0EC
:103EE000089595912091C00025FFFCCF9093C600C6
:103EF0008F5FF4CF99E0FF27E82F90935700C89584
:103F0000802D089507B606FE06C007B600FCFDCF5B
:103F100081E187BFE89590E080E050E063E05111D7
:103F20001CC030E020E0FC01E20FF31F44912F5F42
:103F30003F4F4F3F91F420383105A9F780589F4FEC
:103F40008115FCE39F0759F707B606FE03C081E120
:103F500087BFE8958DE00C945E1F07B600FCFDCF8F
:103F6000FC0167BFE89507B600FCFDCF51E0E6CF46
:103F70008DE00E945E1F8DE00E945E1F8091C00058
:103F800085FFFCCF15BC1092C1001092C200F0E07A
:063F9000E0E00995089530
:0400000300003C00BD
:00000001FF
