:020000021000EC
:10FC000011241FBE00E10EBF0FEF0DBFA89584B7F2
:10FC1000877F84BF81B5886181BD11BCCDB7DEB758
:10FC2000DA95DEBFCDBF19B882E08BB988E18AB919
:10FC300086E080939500312C87E083BFD12C22246D
:10FC40002394412C4EEF542E9E012F5F3F4F4901CC
:10FC500006B600FE10C086B7816086BFD39432FE20
:10FC600005C038E0D31207C0D1BCFFCF84E0D81262
:10FC700002C00E94D6FF5F9B9FC08CB1813509F402
:10FC800039C100F5853409F40CC158F4813409F404
:10FC900069C0823409F4CBC08B3151F4689432F8D6
:10FCA0008AC08C3409F465C028F4863409F41CC178
:10FCB0008FE30DC18E3409F41BC18035C9F76894F8
:10FCC00032F857C0853609F4E9C040F5843509F4A7
:10FCD00001C1C0F4833561F786E40E947EFF84E4AD
:10FCE0000E947EFF88E70E947EFF82E40E947EFFE2
:10FCF0008FE60E947EFF8FE60E947EFF84E70E94CF
:10FD00007EFFCCCF863509F4E8C0823689F689E5D6
:10FD10000E947EFF81E00E947EFF22C0803709F4AE
:10FD2000E1C0C0F4873621F60E9482FFA82E0E940F
:10FD300082FFD82E0E9482FF863409F075C0BA2C4B
:10FD4000AD2CC50101978F3F9105A9F0A0F088E087
:10FD500081BDFFCF833709F4B3C0843709F0A8CF42
:10FD600080E0B5C00E9482FF082F0E9482FF102F02
:10FD7000082F8DE0ACC08091680080FF08C08091A2
:10FD8000680080FDFCCF91E190936800E895380110
:10FD9000660C771C17FF46C02BBED12CC12CF3017B
:10FDA000EC0DFD1D86910E947EFFEFEFCE1ADE0A5C
:10FDB000AC14BD04A1F7D12C31FE0AC080916800BB
:10FDC00080FD06C081E180936800E895E89431F8F1
:10FDD00030FE3ECF31FC3CCFCE010196B0E0A0E03A
:10FDE000FC0120813181FD01022E132E209268003A
:10FDF000E895112412960296AE15BF0588F317FFF9
:10FE00007BC02BBED801AA0FBB1F25E0FD012093AC
:10FE10006800E895689431F8E89430F88DE00E9425
:10FE20007EFF16CF1BBEB9CF88E081BDFFCF0E94F9
:10FE300082FFE82E0E9482FFF82E0E9482FFEF24AC
:10FE4000FE24EF24863439F5C70101978F3F9105D1
:10FE500009F080F4E0FC0EC0C8018F779927892B48
:10FE600049F4C701969587959201281B390B2017F5
:10FE7000310718F488E081BDFFCFF4015F9BFECF0E
:10FE80008CB18193CF01881999098E159F05B0F324
:10FE9000689430F890CF88E081BDFFCF0E948EFF3C
:10FEA0008ACF31FE0AC08091680080FDFCCF31E12D
:10FEB00030936800E895E89431F80E94D6FF7BCF34
:10FEC00082E00E947EFF87E90E947EFF8EE10E9411
:10FED0007EFF71CF0E9482FF4CCF81E30E947EFFA4
:10FEE00087E3F5CF83E5F3CF80E00E9486FFEFCF75
:10FEF00083E0FBCF82E0F9CF1BBE84CF5D9BFECFBA
:10FF00008CB908955F9BFECF8CB1089599E0FF27CF
:10FF1000E82F90936800C895802D0895809168001F
:10FF200086FF08C08091680080FDFCCF81E180934E
:10FF30006800E89540E05BEF2CEF31E0B9016150DB
:10FF400071097BBF80E0FA01E80FF11DE691EF3FF8
:10FF500089F491E0980F8F3F59F45A959B01672BD4
:10FF600069F78091680086FD1CC08DE00C947EFFCF
:10FF7000892FE9CFF0E0E0E090E080E043E05091AD
:10FF8000680050FDFCCF9BBF40936800E8955091FE
:10FF9000680050FDFCCF0196F3958217930709F393
:10FFA000EECF81E180936800E895DFCF8DE00E947D
:10FFB0007EFF8DE00E947EFF5D9BFECF13BE1AB8D0
:0CFFC00010929500F0E0E0E00995089533
:040000031000FC00ED
:00000001FF
