:1078000011241FBE08E00EBF0FE50DBFA89584B779
:10781000877F84BF88E181BD11BC10E0A0E6B0E0A5
:10782000E2E0FEE702C005900D92AA37B107D9F752
:10783000CDB7DEB7C158D109DEBFCDBFCF57DF4FBF
:107840001882C158D04019B882E08BB988E18AB952
:1078500086E880BD85E083BF612C712CD12CC12CC2
:1078600010E000E0CE0101965C0133243394F5E092
:107870004F2EA1E15A2E812CBCE39B2ECF57DF4F18
:107880008881C158D04081FD0FC008B600FE0CC0F1
:1078900088B7816088BF63949CE0691205C0CE01FF
:1078A0008F579F4F0E94F63E5F9B3EC1CF57DF4FE1
:1078B0008881C158D040FCB0982F9270A0E2FA168F
:1078C000E9F291110DC090ED9F0D9230B8F68260F3
:1078D000CF57DF4F8883C158D04013BE0E94D13E9E
:1078E000A895B1E5FB1609F4B4C1BF1518F121E460
:1078F000F21609F46BC02F1570F081E3F81609F445
:10790000B2C190E4F91609F472C0A0E3FA120EC0F5
:107910000E94E43E74C0B5E4FB1609F474C020E58F
:10792000F216B1F382E4F81609F466C00E94E43E50
:1079300082E166C096E5F91609F470C09F1588F0DB
:10794000A3E5FA1629F3FA1608F4BDC0B5E5FB1253
:10795000EDCF0E94723E082F10E00E94723E182B5D
:10796000D7CF24E7F21609F420C185E7F81609F409
:1079700066C194E6F912DACF0E94723EE82E0E94A8
:10798000723EF82E0E94723EEF24FE24EF249701EF
:107990002150310920383105B8F4E0FC15C0863497
:1079A00099F4C8018F739927892B71F40115ACE301
:1079B0001A0750F49401201B310BC7019695879547
:1079C0002817390708F092C00E94DF3E0E94723EDD
:1079D0008058893108F045C0E82FF0E0E05AFF4FA9
:1079E000F0800E94E43E8F2D0E946E3E08C00E94EF
:1079F000723E0E94723E8CCF84E10E94ED3E80E197
:107A00000E946E3E91C00E94723EF82EA1E0AF151A
:107A100008F07ECF0E94723EFA94F8CF0E94723E28
:107A2000E82E0E94723EF82E0E94723E282E0E947E
:107A3000723EBCEAEB1217C020E8F21212C0CE016F
:107A40008F579F4F0E94773E0E94983ECF57DF4F3F
:107A50008881C158D0408460CF57DF4F8883C15898
:107A6000D040F12CBECF80E3E8120DC0F110F9CF69
:107A7000222019F191E0291619F1A2E02A12B1CFC2
:107A8000E2E0FE2EAECFB0E5EB1208C080E0FF20B2
:107A900061F098E082E0F912E4CF07C028E5E21235
:107AA000E0CF88E0F81205C083E00E94663EF82E21
:107AB00098CF81E0F110D5CFF8CF7EE1F72E91CFAE
:107AC00065E9F62E8ECFCE018F579F4F0E94773EED
:107AD0000E94983ECF57DF4F8881C158D0408460C4
:107AE000CF57DF4F8883C158D04012CF7E2C68011A
:107AF000CC0CDD1CF5015F9BFECFA8958CB181936A
:107B00008E2F8A198715B8F30E94E43ECF57DF4FB6
:107B10008881C158D0408860CF57DF4F8883C158D3
:107B2000D040E6940E0D111DCF57DF4F8881C1580C
:107B3000D04080FF10C007B600FCABC057BEE89530
:107B4000CF57DF4F8881C158D0408E7FCF57DF4F4E
:107B50008883C158D040CF57DF4F8881C158D0406B
:107B600083FF8CCE80FD8ACE82FD03C0C6010E94B9
:107B7000873E80E0871508F493C0D601FD0140924E
:107B80005700E89507B600FE1FCFCF57DF4F88811B
:107B9000C158D040877F8160CF57DF4F8883C1585D
:107BA000D04080E10E946E3E69CE0E94723EE82E77
:107BB0000E94723EF82E0E94723E282FEF24FE246F
:107BC000EF24C801B0E0A0E0880F991FAA1FBB1FD7
:107BD000A701415051094038510508F0F5CEE0FCAD
:107BE000F3CE263409F0F0CE8E0D9F1DA11DB11DE0
:107BF00081309048A105B10508F0E6CE0E94723EA2
:107C0000803209F0E1CECE018F579F4F0E94773E20
:107C100084E10E946E3EF801EE0FFF1F80E08E159A
:107C200040F080E10E946E3EF694E7940E0D1F1D19
:107C30007BCF95915D9BFECF9CB98F5FF0CF0E946B
:107C4000E43E8EE10E946E3E85E90E946E3E82E037
:107C5000CBCE82E48BB90E94E43E80E10E946E3E6E
:107C60005E9BFECF1CCE0E94E43E81E40E946E3EED
:107C700086E50E946E3E82E50E946E3E80E20E9492
:107C80006E3E83E50E946E3E84E50E946E3E8BE46C
:107C9000ABCE83FF60CF07B600FE50CFA895FBCFD9
:107CA000A82FB0E0F501EA0FFB1F9081E2E0F0E0C1
:107CB000EC0FFD1FEA0FFB1F2081FD01092E122E84
:107CC00030925700E89511248E5F54CF99E0FF273A
:107CD000E82F90935700C895802D08955D9BFECFA7
:107CE0008CB908955F9BFECFA8958CB10895FC01D7
:107CF000808180FD02C00895A89507B600FCFCCFE6
:107D000081E187BFE89580818E7F8083089507B6E3
:107D100000FC0AC023E0DC01FD0120935700E89538
:107D200007B600FC03C00895A895F1CFA895F8CF39
:107D300007B606FC20C0B0E0A0E030E043E031111F
:107D400022C090E080E0FD01E80FF91F2491019628
:107D50002F3FC9F480389105B1F7A058BF4FA11546
:107D600088E7B80761F707B606FE03C081E187BF61
:107D7000E8950895A89507B600FCFCCF81E187BF80
:107D8000E895D9CFA89507B600FCFCCFFD0140933C
:107D90005700E89507B600FC02C031E0DECFA89599
:107DA000F9CFA89588E181BD8FE081BD0895A895A0
:107DB00084B7877F84BF88E181BD11BC089588E1C5
:107DC00081BD88E081BDFFCF0E94723E803211F0FC
:107DD0000E94DF3E84E10C946E3ECF93C82F0E9438
:107DE000723EC150E1F7CF910C94E43E0E94773E81
:107DF0000E94D73E13BE1AB810BCF0E0E0E009952F
:027E0000FFCFB2
:107E020002011200323200000000000000000000F7
:0A7E12000000000000000000030063
:040000030000780081
:00000001FF
