:020000021000EC
:10F8000011241FBE00E10EBF0FEF0DBFA89584B7F6
:10F81000877F84BF88E181BD11BC11E0A0E0B1E029
:10F82000E2E5FEEF01E00BBF02C007900D92AA31A6
:10F83000B107D9F7CDB7DEB7C150D140DEBFCDBFDC
:10F84000CF5FDE4F1882C150D14019B882E08BB92A
:10F8500088E18AB986E08093950087E083BF512CC8
:10F86000D12CC12CB12CA12C10E000E0A5E03A2E47
:10F87000B1E14B2E612C8CEF782ECE0101964C011C
:10F88000CF5FDE4F8881C150D14081FD0FC006B6E9
:10F8900000FE0CC086B7816086BF53949CE059126D
:10F8A00005C0CE018F5F9E4F0E941DFF5F9B3CC134
:10F8B000CF5FDE4F8881C150D140FCB0982F92704D
:10F8C000E0E2FE16E9F291110DC090ED9F0D92302D
:10F8D000B8F68260CF5FDE4F8883C150D14013BE3F
:10F8E0000E94F8FEA895F1E5FF1609F4C7C1FF15BF
:10F8F00018F121E4F21609F46BC02F1570F041E302
:10F90000F41609F4C5C180E4F81609F472C090E356
:10F91000F9120EC00E940BFF74C0E5E4FE1609F454
:10F9200074C0F0E5FF16B1F322E4F21609F466C0E4
:10F930000E940BFF82E166C046E5F41609F470C030
:10F940004F1588F083E5F81629F3F81608F4BDC0C2
:10F9500095E5F912EDCF0E9478FE082F10E00E9485
:10F9600078FE182BD7CFE4E7FE1609F42CC1F5E793
:10F97000FF1609F479C124E6F212DACF0E9478FE6C
:10F98000C82E0E9478FEF82E0E9478FEDC2CCF2C28
:10F990009601215031092F3F310509F0B8F4F0FCF0
:10F9A00015C0863499F4C8018F779927892B71F493
:10F9B0000115FCEF1F0750F47601F694E794C3019C
:10F9C000801B910B8E159F0508F092C00E9406FFC8
:10F9D0000E9478FE8058893108F045C0E82FF0E099
:10F9E000E050FF4FF0800E940BFF8F2D0E9474FEAD
:10F9F00008C00E9478FE0E9478FE8CCF84E10E94AD
:10FA000014FF80E10E9474FE8FC00E9478FEF82EE1
:10FA100041E04F1508F07ECF0E9478FEFA94F8CFAF
:10FA20000E9478FEE82E0E9478FEF82E0E9478FE52
:10FA3000282E0E9478FE8CEAE81217C090E8F9128E
:10FA400012C0CE018F5F9E4F0E947DFE0E94A9FED4
:10FA5000CF5FDE4F8881C150D1408460CF5FDE4FE1
:10FA60008883C150D140F12CBECFE0E3EE120DC02F
:10FA7000F110F9CF222019F1F1E02F1619F122E04F
:10FA80002212B1CFF2E0FF2EAECF40E5E41208C063
:10FA900080E0FF2061F0E8E082E0FE12E4CF07C0E2
:10FAA00088E5E812E0CF98E0F91205C083E00E94F3
:10FAB0006CFEF82E98CF81E0F110D5CFF8CFEEE1B3
:10FAC000FE2E91CF77E9F72E8ECFCE018F5F9E4F1E
:10FAD0000E947DFE0E94A9FECF5FDE4F8881C1504B
:10FAE000D1408460CF5FDE4F8883C150D14012CFB8
:10FAF000F4015F9BFECFA8958CB18193CF0188194B
:10FB000099098C159D05A8F30E940BFFCF5FDE4F6E
:10FB10008881C150D1408860CF5FDE4F8883C1505B
:10FB2000D14058010E0D1F1DCF5FDE4F8881C1509F
:10FB3000D14080FF12C08091680080FD0EC04092CD
:10FB40006800E895CF5FDE4F8881C150D1408E7F3D
:10FB5000CF5FDE4F8883C150D140CF5FDE4F8881B9
:10FB6000C150D14083FF8CCE80FD8ACE82FD03C080
:10FB7000C5010E948FFECE010196B0E0A0E0AC1559
:10FB8000BD0508F49BC08B2D881F8827881F8BBF5D
:10FB9000D501AA0FBB1FFD0130926800E895809146
:10FBA000680080FF13CFCF5FDE4F8881C150D14006
:10FBB000877F8160CF5FDE4F8883C150D14080E175
:10FBC0000E9474FE5DCE0E9478FEE82E0E9478FEB0
:10FBD000F82E0E9478FE282FEF24FE24EF24C8017F
:10FBE000B0E0A0E0880F991FAA1FBB1FA7014150DA
:10FBF00051094F3F510511F008F0E8CEE0FCE6CE88
:10FC0000263409F0E3CE8E0D9F1DA11DB11D019775
:10FC1000A240B10508F0DACE0E9478FE803209F0E9
:10FC2000D5CECE018F5F9E4F0E947DFE84E10E9463
:10FC300074FE812F881F8827881F8BBF9801220F91
:10FC4000331F90E080E0F901E80FF91FE6915D9B1A
:10FC5000FECFECB90196E816F906A9F780E10E94FB
:10FC600074FEF694E7945ECF0E940BFF8EE10E9433
:10FC700074FE87E90E9474FE82E0B8CE82E48BB9FC
:10FC80000E940BFF80E10E9474FE5E9BFECF09CEB6
:10FC90000E940BFF81E40E9474FE86E50E9474FEC0
:10FCA00082E50E9474FE80E20E9474FE83E50E9459
:10FCB00074FE84E50E9474FE8BE498CEFC012081E2
:10FCC000318141E0FD01022E132E40936800E8953A
:10FCD00011241296029653CF99E0FF27E82F9093B4
:10FCE0006800C895802D08955D9BFECF8CB908955E
:10FCF0005F9BFECFA8958CB10895FC01808180FDAB
:10FD000002C00895A8958091680080FDFBCF81E135
:10FD100080936800E89580818E7F8083089520918C
:10FD2000680020FD12C0292F221F2227221F2BBF6F
:10FD3000880F991F23E0DC01FD0120936800E895FE
:10FD40008091680080FD03C00895A895E8CFA8952C
:10FD5000F7CF8091680086FD1AC040E057EF88EF2A
:10FD600091E0BC01615071097BBF20E0FA01E20F14
:10FD7000F11DE691EF3FA9F531E0320F2F3F81F4FD
:10FD8000A8955A95CB01009761F720C0A89580915E
:10FD9000680080FDFBCF81E180936800E895DDCFAE
:10FDA000232FE4CFA8955091680050FDFBCF3BBFB7
:10FDB000FD0140936800E8955091680050FD0FC028
:10FDC0002F5F3F4FB3952817390769F78091680077
:10FDD00086FF0DC081E180936800E8950895A8959D
:10FDE000EBCFB0E0A0E030E020E043E0DCCF0895CE
:10FDF000A89588E181BD8FE081BD0895A89584B75D
:10FE0000877F84BF88E181BD11BC089588E181BDF1
:10FE100088E081BDFFCF0E9478FE803211F00E9401
:10FE200006FF84E10C9474FECF93C82F0E9478FEE5
:10FE3000C150E1F7CF910C940BFF0E947DFE0E9410
:10FE4000FEFE13BE1AB810929500F0E0E0E00995AE
:02FE5000FFCFE2
:10FE52000201120032320000000000000000000027
:0AFE62000000000000000000030093
:040000031000F800F1
:00000001FF
