:1038000011241FBE04E00EBF0FE50DBFA89584B7BD
:10381000877F84BF88E181BD11BC20E0A0E6B0E0D5
:1038200001C01D92A136B207E1F7CDB7DEB7CE5881
:10383000D109DEBFCDBF19B882E08BB988E18AB962
:1038400086E880BD85E083BFC257DF4F1882CE581F
:10385000D040C357DF4F1882CD58D040C557DF4FF7
:1038600019821882CB58D040F12CE12C912C10E019
:10387000C12C28E3D22EA12C30E4B32E012F9E01BF
:103880002F5F3F4FAE014F575F4FBE0165577F4FD0
:10389000CE0182579F4F0E94DA1E813029F4CE015B
:1038A00083579F4F0E946A1F823079F461E070E075
:1038B000C257DF4F8881CE58D0400E94C81D80EB90
:1038C0000E94E61D0E94ED1DD9CFCF57DF4F6881C2
:1038D000C158D040833049F0C557DF4F2881398126
:1038E000CB58D0402115310511F440EC0DC06031AA
:1038F00051F0B0F5633009F499C060F4613009F417
:1039000086C0623091F740E0C257DF4F8881CE58C1
:10391000D04023C06530B9F3663039F7C257DF4F66
:103920008881CE58D04025303105A9F4CE57DF4FDD
:103930009881C258D04091110EC0CD57DF4F988169
:10394000C358D040911107C0CC57DF4F9881C4585D
:10395000D04097FF7EC040EC66E00E94F11D64C03D
:10396000633109F483C0E8F4613109F4F1C06231D4
:1039700009F0BBCFCE0183579F4F0E947C1E0E944F
:103980009C1E40E0CF57DF4F6881C158D040C257DE
:10399000DF4F8881CE58D0400E94F11D9924939426
:1039A00043C0643109F4A8C06B3109F09ECFC257FF
:1039B000DF4F8881CE58D04040EC6BE12630310596
:1039C00061F6CB57DF4F9881C558D0401EE199234F
:1039D00039F014E9913021F010E0923009F413E04D
:1039E00064E070E00E94C81DCF57DF4F8881C15846
:1039F000D0400E94E61D80E00E94E61D812F0E94BB
:103A0000E61D80E00E94E61D0E94ED1D0DC0C2571C
:103A1000DF4F8881CE58D04040EC61E02130310545
:103A200009F09BCF0E94031E11E028CFC257DF4F41
:103A30008881CE58D04040EC63E02230310509F057
:103A40008CCFCE57DF4F6881C258D0400E942A1ECB
:103A5000EBCFCC57DF4FE880F980C458D040FE242C
:103A6000EF24FE24EE0CFF1C40E076CF2A30310517
:103A700018F440EC63E148CFCE57DF4F088119813D
:103A8000C258D040102701271027C8010A962817CE
:103A9000390779F70B978038910558F700FDE9CF82
:103AA000C7018F779927892B21F7E11488E3F8065E
:103AB00000F7C6018E199F0980179107D0F2CE0139
:103AC00083579F4F0E947C1E911003C0C7010E9424
:103AD0008B1E9E0123573F4F402FBE016F5F7F4FCC
:103AE000C7010E94AF1EE00EF11E40E0CF57DF4F2E
:103AF0006881C158D04008CF2430310519F040EC1E
:103B000064E102CFCE57DF4F08811981C258D040FF
:103B1000102701271027C80101978F3F910509F051
:103B200070F7C5018E199F098017910740F3CE01E8
:103B300083579F4F0E947C1EA801B701C257DF4FD9
:103B40008881CE58D0400E944A1EE00EF11E6CCFF4
:103B5000CE0183579F4F0E947C1E82E48BB940E0C8
:103B6000CF57DF4F6881C158D040C257DF4F88819F
:103B7000CE58D0400E94F11D5E9BFECF90CE5F9B41
:103B8000FECFA8958CB108955D9BFECF8CB90895AA
:103B90001F93CF93DF93182FEB018BE10E94C41D7D
:103BA000812F0E94C41D8D2F0E94C41D8C2F0E9446
:103BB000C41D7C2F7127C5E17C277D277093600091
:103BC0008EE0DF91CF911F910C94C41D9091600005
:103BD0009827909360000C94C41D809160000C9411
:103BE000C41DCF93DF93D62FC42F62E070E00E94F4
:103BF000C81D8D2F0E94E61D8C2F0E94E61DDF91AF
:103C0000CF910C94ED1D6BE070E00E94C81D81E027
:103C10000E94E61D80E00E94E61D88E00E94E61DED
:103C200083E50E94E61D84E50E94E61D8BE40E9468
:103C3000E61D85E30E94E61D80E30E94E61D80E309
:103C40000E94E61D8FE50E94E61D82E30E94E61DAC
:103C50000C94ED1DCF9390E7960FC2E0923020F0C8
:103C6000CCE0623909F0C0E063E070E00E94C81D5A
:103C700083E00E94E61D80E00E94E61D8C2F0E94DA
:103C8000E61DCF910C94ED1D80E293E000000197BA
:103C9000E9F708950F931F93CF93DF93EB018A0108
:103CA000BA016D5F7F4F0E94C81D84E10E94E61D2E
:103CB00080E00E94E61D0C0F1D1F87E0C017D10792
:103CC00049F480E00E94E61DDF91CF911F910F9192
:103CD0000C94ED1DFE012491219690916000922795
:103CE000909360005D9BFECF2CB98F5F803231F7DF
:103CF0000E94441E80E0E2CFFC012081211102C01D
:103D00000895A89507B600FCFCCF21E127BFE895F0
:103D1000FC011082089507B600FC0AC023E0DC0114
:103D2000FD0120935700E89507B600FC03C00895F5
:103D3000A895F1CFA895F8CFCF93DF93D0E0C0E05E
:103D4000CE010E948B1EC058DF4FC11588E3D807F3
:103D5000B9F781E187BFE895DF91CF9108951F936F
:103D6000CF93DF93EC0190E081E0941768F085E059
:103D7000DE01FD0180935700E89581E0F901808321
:103D8000DF91CF911F910895A92FB0E0FB01EA0FB9
:103D9000FB1F50811181FD01052E112E80935700CC
:103DA000E89511249E5FE1CFA89588E181BD8FE061
:103DB00081BD08958F929F92AF92BF92CF92DF9272
:103DC000EF92FF920F931F93CF93DF934C017B01F0
:103DD0005A016901FA011082011151C08CE35F9B05
:103DE00043C09CB19B3109F03FC00E94D41E0E9489
:103DF000BF1DC82FF40180830E94BF1DC8279BE10F
:103E0000C927F701108281830E94BF1DC827F701CF
:103E100020813181282B318320830E94BF1DD82F20
:103E2000C82710E000E0F701808191810817190789
:103E300058F10E94BF1DC81341C0DE3009F03EC0DA
:103E4000F701808191818B389105D0F580E0DF9179
:103E5000CF911F910F91FF90EF90DF90CF90BF9087
:103E6000AF909F908F90089508B600FEB8CF98B796
:103E7000916098BF815009F0B2CF81E0E8CF0E94F5
:103E8000BF1D8B31E1F7B3CF0E94BF1DC827F501DD
:103E90000A30110530F4E00FF11F80830F5F1F4FD0
:103EA000C2CF90819331D1F798012A50310920383F
:103EB0003105A0F72C0D3D1DF901EFCF82E0C7CFF2
:103EC00083E0C5CFA89584B7877F84BF88E181BD93
:103ED00011BC08950E947C1E0E94621F13BE1AB876
:0A3EE00010BCF0E0E0E00995FFCF10
:0400000300003800C1
:00000001FF
