:1038000011241FBE04E00EBF0FEF0DBFA89584B7B3
:10381000877F84BFE0E6F0E088E18083108221E0CA
:10382000A0E0B1E001C01D92A130B207E1F7CDB731
:10383000DEB7CE58D109DEBFCDBF1092C40082E002
:103840008093C00088E18093C10086E08093C2002D
:1038500085E085BDC257DF4F1882CE58D040C35790
:10386000DF4F1882CD58D040C557DF4F19821882DC
:10387000CB58D040F12CE12C912C10E0C12C28E346
:10388000D22EA12C30E4B32E012F9E012F5F3F4F8B
:10389000AE014F575F4FBE0165577F4FCE01825734
:1038A0009F4F0E94EE1E813029F4CE0183579F4F17
:1038B0000E947E1F823079F461E070E0C257DF4FD2
:1038C0008881CE58D0400E94D71D80EB0E94F51D04
:1038D0000E94FC1DD9CFCF57DF4F6881C158D0401F
:1038E000833049F0C557DF4F28813981CB58D0400C
:1038F0002115310511F440EC0DC0603151F0B0F5E7
:10390000633009F499C060F4613009F486C0623014
:1039100091F740E0C257DF4F8881CE58D04023C096
:103920006530B9F3663039F7C257DF4F8881CE581A
:10393000D04025303105A9F4CE57DF4F9881C258C9
:10394000D04091110EC0CD57DF4F9881C358D04061
:10395000911107C0CC57DF4F9881C458D04097FFD2
:103960007EC040EC66E00E94001E64C0633109F432
:1039700083C0E8F4613109F4F1C0623109F0BBCFD2
:10398000CE0183579F4F0E948E1E0E94AE1E40E0C4
:10399000CF57DF4F6881C158D040C257DF4F888171
:1039A000CE58D0400E94001E9924939443C06431A5
:1039B00009F4A8C06B3109F09ECFC257DF4F888150
:1039C000CE58D04040EC6BE12630310561F6CB5744
:1039D000DF4F9881C558D0401EE1992339F014E992
:1039E000913021F010E0923009F416E064E070E0CC
:1039F0000E94D71DCF57DF4F8881C158D0400E9409
:103A0000F51D80E00E94F51D812F0E94F51D80E0CC
:103A10000E94F51D0E94FC1D0DC0C257DF4F88811A
:103A2000CE58D04040EC61E02130310509F09BCF09
:103A30000E94121E11E028CFC257DF4F8881CE5856
:103A4000D04040EC63E02230310509F08CCFCE57F6
:103A5000DF4F6881C258D0400E94391EEBCFCC574F
:103A6000DF4FE880F980C458D040FE24EF24FE24C4
:103A7000EE0CFF1C40E076CF2A30310518F440EC04
:103A800063E148CFCE57DF4F08811981C258D0403B
:103A9000102701271027C8010A962817390779F738
:103AA0000B978038910558F700FDE9CFC7018F7754
:103AB0009927892B21F7E11488E3F80600F7C6015E
:103AC0008E199F0980179107D0F2CE0183579F4F1F
:103AD0000E948E1E911003C0C7010E949D1E9E0170
:103AE00023573F4F402FBE016F5F7F4FC7010E949A
:103AF000C11EE00EF11E40E0CF57DF4F6881C15874
:103B0000D04008CF2430310519F040EC64E102CFF9
:103B1000CE57DF4F08811981C258D04010270127A6
:103B20001027C80101978F3F910509F070F7C50173
:103B30008E199F098017910740F3CE0183579F4F3D
:103B40000E948E1EA801B701C257DF4F8881CE5850
:103B5000D0400E94591EE00EF11E6CCFCE0183575B
:103B60009F4F0E948E1E82E48093C00040E0CF579A
:103B7000DF4F6881C158D040C257DF4F8881CE588F
:103B8000D0400E94001E8091C00086FFFCCF8DCEE9
:103B90008091C00087FFFCCFA8958091C600089552
:103BA0009091C00095FFFCCF8093C60008951F93AD
:103BB000CF93DF93182FEB018BE10E94D01D812F53
:103BC0000E94D01D8D2F0E94D01D8C2F0E94D01DD1
:103BD0007C2F7127C5E17C277D27709300018EE043
:103BE000DF91CF911F910C94D01D909100019827E7
:103BF000909300010C94D01D809100010C94D01D75
:103C0000CF93DF93D62FC42F62E070E00E94D71DC0
:103C10008D2F0E94F51D8C2F0E94F51DDF91CF91F5
:103C20000C94FC1D6BE070E00E94D71D81E00E94A7
:103C3000F51D80E00E94F51D88E00E94F51D83E5DA
:103C40000E94F51D84E50E94F51D8BE40E94F51D80
:103C500085E30E94F51D80E30E94F51D80E30E942C
:103C6000F51D8FE50E94F51D82E30E94F51D0C9461
:103C7000FC1DCF9390E7960FC2E0923020F0CCE08D
:103C8000623909F0C0E063E070E00E94D71D83E074
:103C90000E94F51D80E00E94F51D8C2F0E94F51DED
:103CA000CF910C94FC1D80E293E000000197E9F7AE
:103CB00008950F931F93CF93DF93EB018A01BA010D
:103CC0006D5F7F4F0E94D71D84E10E94F51D80E04B
:103CD0000E94F51D0C0F1D1F87E0C017D10749F486
:103CE00080E00E94F51DDF91CF911F910F910C9400
:103CF000FC1DFE0124912196909100019227909342
:103D000000019091C00095FFFCCF2093C6008F5F0B
:103D1000803219F70E94531E80E0DFCFFC01208122
:103D2000211102C00895A89507B600FCFCCF21E13F
:103D300027BFE895FC011082089507B600FC0AC071
:103D400023E0DC01FD0120935700E89507B600FC55
:103D500003C00895A895F1CFA895F8CFCF93DF932E
:103D6000D0E0C0E0CE010E949D1EC058DF4FC115BB
:103D700088E3D807B9F781E187BFE895DF91CF9154
:103D800008951F93CF93DF93EC0190E081E09417A7
:103D900068F085E0DE01FD0180935700E89581E041
:103DA000F9018083DF91CF911F910895A92FB0E091
:103DB000FB01EA0FFB1F50811181FD01052E112E21
:103DC00080935700E89511249E5FE1CFA895E0E627
:103DD000F0E088E180838FE0808308958F929F9246
:103DE000AF92BF92CF92DF92EF92FF920F931F9309
:103DF000CF93DF934C017B015A016901FA011082D4
:103E000001114FC08CE39091C00097FF42C0909188
:103E1000C6009B31F1F50E94E61E0E94C81DC82F06
:103E2000F40180830E94C81DC8279BE1C927F701C0
:103E3000108281830E94C81DC827F701208131812B
:103E4000282B318320830E94C81DD82FC82710E05B
:103E500000E0F701808191810817190738F10E946D
:103E6000C81DC8133DC0DE30D9F5F70180819181AE
:103E70008B389105B8F580E0DF91CF911F910F91BC
:103E8000FF90EF90DF90CF90BF90AF909F908F907A
:103E90000895A89BB8CFA89A815009F0B4CF81E0CB
:103EA000EBCF0E94C81D8B31E1F7B7CF0E94C81D30
:103EB000C827F5010A30110530F4E00FF11F8083A7
:103EC0000F5F1F4FC6CF90819331D1F798012A50D1
:103ED000310920383105A0F72C0D3D1DF901EFCF38
:103EE00082E0CACF83E0C8CFA89584B7877F84BF1C
:103EF000E0E6F0E088E18083108208950E948E1E43
:103F00000E94741F15BC1092C1001092C200F0E014
:063F1000E0E00995FFCF7F
:0400000300003800C1
:00000001FF
