:1018000011241FBE04E00EBF0FEF0DBFA89584B7D3
:10181000877F84BFE0E6F0E088E18083108221E0EA
:10182000A0E0B1E001C01D92A130B207E1F7CDB751
:10183000DEB7CE54D109DEBFCDBF1092C4001092E6
:10184000C00088E18093C10086E08093C20085E0FB
:1018500085BD2F961FAE2F972E961FAE2E972D96D5
:101860001FAE1EAE2D97F12CE12C912C10E0C12C57
:1018700028E1D22EA12C30E2B32E012F9E012F5F42
:101880003F4FAE014F5B5F4FBE01655B7F4FCE01A7
:10189000825B9F4F25D2813021F4CE01835B9F4F25
:1018A000A7D2823051F461E070E02F968FAD2F9770
:1018B00030D180EB47D14CD1E0CF22966FAD22974B
:1018C000833039F02D962EAD3FAD2D972115310582
:1018D00011F440EC0DC0603151F058F5633009F45B
:1018E00077C050F4613009F467C0623091F740E08E
:1018F0002F968FAD2F971BC06530C9F3663049F71F
:101900002F968FAD2F972530310579F423969FAD13
:10191000239791110AC024969FAD2497911105C079
:1019200025969FAD259797FF61C040EC66E013D1E7
:101930004DC0633109F465C0A8F4613109F4C6C033
:10194000623139F6CE01835B9F4F6BD18AD140E083
:1019500022966FAD22972F968FAD2F97FCD09924AA
:10196000939434C0643109F48BC06B3109F0B1CF6A
:101970002F968FAD2F9740EC6BE126303105B9F6ED
:1019800026969FAD26971EE1992339F013E99130F1
:1019900021F010E0923009F41AE064E070E0B9D070
:1019A00022968FAD2297CED080E0CCD0812FCAD0A6
:1019B00080E0C8D0CDD00AC02F968FAD2F9740ECD5
:1019C00061E02130310509F0B2CFD3D011E055CF1D
:1019D0002F968FAD2F9740EC63E02230310509F050
:1019E000A6CF23966FAD2397DED0F0CF2696EEAC30
:1019F000FFAC2697FE24EF24FE24EE0CFF1C40E0F3
:101A000095CF2A30310518F440EC63E171CF24966C
:101A10000EAD1FAD2497102701271027C8010A9685
:101A20002817390789F70B978034910568F700FD6F
:101A3000EBCFC7018F739927892B31F7E11488E128
:101A4000F80610F7C6018E199F0980179107E0F27A
:101A5000CE01835B9F4FE5D0911002C0C701F0D04B
:101A60009E01235B3F4F402FBE016F5F7F4FC70139
:101A70000AD1E00EF11E40E022966FAD229738CFDA
:101A80002430310519F040EC64E132CF24960EADDC
:101A90001FAD2497102701271027C80101978F3FFA
:101AA000910509F080F7C5018E199F0980179107EC
:101AB00050F3CE01835B9F4FB4D0A801B7012F969E
:101AC0008FAD2F9785D0E00EF11E80CFCE01835BC6
:101AD0009F4FA7D080E48093C00040E022966FAD76
:101AE00022972F968FAD2F9736D08091C00086FF1A
:101AF000FCCFD3CE8091C00087FFFCCFA89580910A
:101B0000C60008959091C00095FFFCCF8093C60059
:101B100008951F93CF93DF93182FEB018BE1F2DF32
:101B2000812FF0DF8D2FEEDF8C2FECDF7C2F7127E4
:101B3000C5E17C277D27709300018EE0DF91CF9176
:101B40001F91E0CF90910001982790930001DACF88
:101B500080910001D7CFCF93DF93D62FC42F62E0BF
:101B600070E0D7DF8D2FEEDF8C2FECDFDF91CF9190
:101B7000EFCF6BE070E0CDDF81E0E4DF80E0E2DF1B
:101B800088E0E0DF83E5DEDF84E5DCDF8BE4DADFBD
:101B900085E3D8DF80E3D6DF80E3D4DF8FE5D2DFD3
:101BA00082E3D0DFD5CFCF9390E7960FC2E092309B
:101BB00020F0CCE0623909F0C0E063E070E0A9DF1A
:101BC00083E0C0DF80E0BEDF8C2FBCDFCF91C0CFD1
:101BD0000F931F93CF93DF93EB018A01BA016D5FDF
:101BE0007F4F97DF84E1AEDF80E0ACDF0C0F1D1F7D
:101BF000C017D10739F480E0A5DFDF91CF911F91A5
:101C00000F91A6CFFE019491219680910001892722
:101C1000809300018091C00085FFFCCF9093C600A7
:101C2000E7CFFC012081211102C00895A89507B6D5
:101C300000FCFCCF21E127BFE895FC01108208954C
:101C400007B600FC0AC023E0DC01FD012093570029
:101C5000E89507B600FC03C00895A895F1CFA895B4
:101C6000F8CFCF93DF93D0E0C0E0CE01E9DFC05CD6
:101C7000DF4FC11588E1D807C1F781E187BFE8953B
:101C8000DF91CF9108951F93CF93DF93EC0190E004
:101C900081E0941768F085E0DE01FD018093570034
:101CA000E89581E0F9018083DF91CF911F9108953C
:101CB000A92FB0E0FB01EA0FFB1F50811181FD014C
:101CC000052E112E80935700E89511249E5FE1CFD9
:101CD000A895E0E6F0E088E180838FE080830895B6
:101CE0008F929F92AF92BF92CF92DF92EF92FF922C
:101CF0000F931F93CF93DF934C017B015A0169012E
:101D0000FA011082011149C08CE09091C00097FF48
:101D10003CC09091C6009B31C1F5DADFEBDEC82FE5
:101D2000F4018083E7DEC8279BE1C927F701108211
:101D30008183E0DEC827F70120813181282B3183A0
:101D40002083D8DED82FC82710E000E0F70180817B
:101D500091810817190728F1CDDEC8133BC0DE308A
:101D6000C9F5F701808191818B349105A8F580E058
:101D7000DF91CF911F910F91FF90EF90DF90CF9067
:101D8000BF90AF909F908F900895A89BBECFA89AC8
:101D9000815009F0BACF81E0EBCFACDE8B31E9F7AF
:101DA000BDCFA8DEC827F5010A30110530F4E00FD9
:101DB000F11F80830F5F1F4FC9CF90819331D1F7FF
:101DC00098012A50310920343105A0F72C0D3D1D12
:101DD000F901EFCF82E0CCCF83E0CACFA89584B7DA
:101DE000877F84BFE0E6F0E088E180831082089579
:101DF00018DFF4DF15BC1092C1001092C200F0E0B1
:061E0000E0E00995FFCFB0
:0400000300001800E1
:00000001FF
