:1018000011241FBE04E00EBF0FE50DBFA89584B7DD
:10181000877F84BF88E181BD11BC20E0A0E6B0E0F5
:1018200001C01D92A136B207E1F7CDB7DEB7CE54A5
:10183000D109DEBFCDBF19B882E08BB988E18AB982
:1018400086E880BD85E083BF2F961FAE2F972E962A
:101850001FAE2E972D961FAE1EAE2D97F12CE12CAC
:10186000912C10E0C12C28E1D22EA12C30E2B32E15
:10187000012F9E012F5F3F4FAE014F5B5F4FBE01B7
:10188000655B7F4FCE01825B9F4F17D2813021F481
:10189000CE01835B9F4F97D2823051F461E070E0BC
:1018A0002F968FAD2F9727D180EB3ED143D1E0CF3C
:1018B00022966FAD2297833039F02D962EAD3FAD35
:1018C0002D972115310511F440EC0DC0603151F018
:1018D00058F5633009F477C050F4613009F467C0FB
:1018E000623091F740E02F968FAD2F971BC0653087
:1018F000C9F3663049F72F968FAD2F972530310504
:1019000079F423969FAD239791110AC024969FAD39
:101910002497911105C025969FAD259797FF61C02B
:1019200040EC66E00AD14DC0633109F465C0A8F40B
:10193000613109F4C6C0623139F6CE01835B9F4F35
:101940005FD17ED140E022966FAD22972F968FAD6A
:101950002F97F3D09924939434C0643109F48BC049
:101960006B3109F0B1CF2F968FAD2F9740EC6BE123
:1019700026303105B9F626969FAD26971EE19923AC
:1019800039F013E9913021F010E0923009F417E0BA
:1019900064E070E0B0D022968FAD2297C5D080E091
:1019A000C3D0812FC1D080E0BFD0C4D00AC02F9651
:1019B0008FAD2F9740EC61E02130310509F0B2CFB7
:1019C000CAD011E055CF2F968FAD2F9740EC63E032
:1019D0002230310509F0A6CF23966FAD2397D5D0DD
:1019E000F0CF2696EEACFFAC2697FE24EF24FE2423
:1019F000EE0CFF1C40E095CF2A30310518F440EC86
:101A000063E171CF24960EAD1FAD249710270127F7
:101A10001027C8010A962817390789F70B978034D1
:101A2000910568F700FDEBCFC7018F739927892BCC
:101A300031F7E11488E1F80610F7C6018E199F0905
:101A400080179107E0F2CE01835B9F4FD9D09110B0
:101A500002C0C701E4D09E01235B3F4F402FBE016F
:101A60006F5F7F4FC701FED0E00EF11E40E022966F
:101A70006FAD229738CF2430310519F040EC64E186
:101A800032CF24960EAD1FAD2497102701271027C3
:101A9000C80101978F3F910509F080F7C5018E19A4
:101AA0009F098017910750F3CE01835B9F4FA8D009
:101AB000A801B7012F968FAD2F977CD0E00EF11EB5
:101AC00080CFCE01835B9F4F9BD082E48BB940E0F7
:101AD00022966FAD22972F968FAD2F972ED05E9BBB
:101AE000FECFD6CE5F9BFECFA8958CB108955D9BAF
:101AF000FECF8CB908951F93CF93DF93182FEB017E
:101B00008BE1F5DF812FF3DF8D2FF1DF8C2FEFDFFE
:101B10007C2F7127C5E17C277D27709360008EE0C4
:101B2000DF91CF911F91E3CF909160009827909320
:101B30006000DDCF80916000DACFCF93DF93D62FA6
:101B4000C42F62E070E0D7DF8D2FEEDF8C2FECDF4B
:101B5000DF91CF91EFCF6BE070E0CDDF81E0E4DF8C
:101B600080E0E2DF88E0E0DF83E5DEDF84E5DCDFE4
:101B70008BE4DADF85E3D8DF80E3D6DF80E3D4DFF0
:101B80008FE5D2DF82E3D0DFD5CFCF9390E7960FFA
:101B9000C2E0923020F0CCE0623909F0C0E063E0AE
:101BA00070E0A9DF83E0C0DF80E0BEDF8C2FBCDF08
:101BB000CF91C0CF0F931F93CF93DF93EB018A0197
:101BC000BA016D5F7F4F97DF84E1AEDF80E0ACDF6D
:101BD0000C0F1D1FC017D10739F480E0A5DFDF917E
:101BE000CF911F910F91A6CFFE01949121968091E4
:101BF00060008927809360005D9BFECF9CB9EACF8F
:101C0000FC012081211102C00895A89507B600FCAF
:101C1000FCCF21E127BFE895FC011082089507B6AB
:101C200000FC0AC023E0DC01FD0120935700E89589
:101C300007B600FC03C00895A895F1CFA895F8CF8A
:101C4000CF93DF93D0E0C0E0CE01E9DFC05CDF4F8F
:101C5000C11588E1D807C1F781E187BFE895DF9119
:101C6000CF9108951F93CF93DF93EC0190E081E033
:101C7000941768F085E0DE01FD0180935700E89538
:101C800081E0F9018083DF91CF911F910895A92F01
:101C9000B0E0FB01EA0FFB1F50811181FD01052E11
:101CA000112E80935700E89511249E5FE1CFA895EF
:101CB00088E181BD8FE081BD08958F929F92AF92A0
:101CC000BF92CF92DF92EF92FF920F931F93CF9329
:101CD000DF934C017B015A016901FA011082011165
:101CE00049C08CE05F9B3BC09CB19B31C1F5DFDFFD
:101CF000F9DEC82FF4018083F5DEC8279BE1C927F0
:101D0000F70110828183EEDEC827F701208131813F
:101D1000282B31832083E6DED82FC82710E000E08F
:101D2000F701808191810817190740F1DBDEC813A4
:101D30003EC0DE30E1F5F701808191818B34910561
:101D4000C0F580E0DF91CF911F910F91FF90EF9050
:101D5000DF90CF90BF90AF909F908F90089508B67E
:101D600000FEC0CF98B7916098BF815009F0BACFFC
:101D700081E0E8CFB7DE8B31E9F7BACFB3DEC82711
:101D8000F5010A30110530F4E00FF11F80830F5F79
:101D90001F4FC6CF90819331D1F798012A50310956
:101DA00020343105A0F72C0D3D1DF901EFCF82E065
:101DB000C9CF83E0C7CFA89584B7877F84BF88E168
:101DC00081BD11BC08951CDFF6DF13BE1AB810BC2C
:081DD000F0E0E0E00995FFCF0F
:0400000300001800E1
:00000001FF
