:10F8000011241FBE00E10EBF0FEF0DBFA89584B7F6
:10F81000877F84BF88E181BD11BC21E0A0E0B1E019
:10F8200001C01D92A130B207E1F7CDB7DEB7CE50CF
:10F83000D140DEBFCDBF19B81BB888E18AB986E0D8
:10F840008093950087E083BFC25FDE4F1882CE5061
:10F85000D140C35FDE4F1882CD50D140C55FDE4F2F
:10F8600019821882CB50D140F12CE12C912C10E060
:10F87000C12C2CE7D22EA12C30E8B32E012F9E01F3
:10F880002F5F3F4FAE014F5F5E4FBE01655F7E4F02
:10F89000CE01825F9E4F0E94097F813029F4CE0104
:10F8A000835F9E4F0E949A7F823079F461E070E01E
:10F8B000C25FDE4F8881CE50D1400E94C77D80EB71
:10F8C0000E94E57D0E94EC7DD9CFCF5FDE4F68813D
:10F8D000C150D140833049F0C55FDE4F2881398166
:10F8E000CB50D1402115310511F440EC0DC06031F1
:10F8F00051F080F5633009F491C060F4613009F48F
:10F900007EC0623091F740E0C25FDE4F8881CE500A
:10F91000D1401DC06530B9F3663039F7C25FDE4FA4
:10F920008881CE50D1402530310579F4CE5FDE4F4D
:10F930009881C250D1409F7741F4CD5FDE4F9881CE
:10F94000C350D140992309F47CC040EC66E00E948A
:10F95000F07D62C0633109F47FC0E0F4613109F4E5
:10F96000F6C0623111F6CE01835F9E4F0E94727E17
:10F970000E94987E40E0CF5FDE4F6881C150D14049
:10F98000C25FDE4F8881CE50D1400E94F07D992425
:10F99000939442C0643109F4A5C06B3109F0A5CF3E
:10F9A000C25FDE4F8881CE50D14040EC6BE1263003
:10F9B000310569F6CB5FDE4F1881C550D140112368
:10F9C00009F4C1C0113009F4C0C0123009F010E0D0
:10F9D00064E070E00E94C77DCF5FDE4F8881C15038
:10F9E000D1400E94E57D80E00E94E57D812F0E944C
:10F9F000E57D80E00E94E57D0E94EC7D0DC0C25F48
:10FA0000DE4F8881CE50D14040EC61E0213031059D
:10FA100009F09DCF0E94027E11E030CFC25FDE4F21
:10FA20008881CE50D14040EC63E02230310509F0AE
:10FA30008ECFCE5FDE4F6881C250D1400E94297EBA
:10FA4000EBCFCC5FDE4FE880F980C450D140FE247C
:10FA5000EF24FE2440E07ACF2A30310518F440EC40
:10FA600063E152CFCE5FDE4F08811981C250D14091
:10FA7000102701271027C8010A962817390779F798
:10FA80000B978F3F910509F050F700FDE8CFC701B4
:10FA90008F779927892B19F7380176946794C601D7
:10FAA000861997098E159F05D0F2CE01835F9E4F70
:10FAB0000E94727E911003C0C7010E94837E9E0146
:10FAC000235F3E4FA801BE016F5F7F4FC7010E94B9
:10FAD000DE7EE60CF71C40E0CF5FDE4F6881C15050
:10FAE000D14012CF2430310519F040EC64E10CCF45
:10FAF000CE5FDE4F08811981C250D1401027012707
:10FB00001027C80101978F3F910509F070F700FD9C
:10FB1000ECCF380176946794C501861997098E1544
:10FB20009F0518F3CE01835F9E4F0E94727EA8014D
:10FB3000B701C25FDE4F8881CE50D1400E94437E24
:10FB4000E60CF71C69CF1EE143CF16E941CFCE0189
:10FB5000835F9E4F0E94727E80E48BB940E0CF5F4E
:10FB6000DE4F6881C150D140C25FDE4F8881CE50E8
:10FB7000D1400E94F07D5E9BFECF91CE5F9BFECF79
:10FB8000A8958CB108955D9BFECF8CB908951F9305
:10FB9000CF93DF93182FEB018BE10E94C37D812F60
:10FBA0000E94C37D8D2F0E94C37D8C2F0E94C37D38
:10FBB0007C2F7127C5E17C277D27709300018EE0A3
:10FBC000DF91CF911F910C94C37D909100019827F4
:10FBD000909300010C94C37D809100010C94C37D2F
:10FBE000CF93DF93D62FC42F62E070E00E94C77DD1
:10FBF0008D2F0E94E57D8C2F0E94E57DDF91CF91B6
:10FC00000C94EC7D6BE070E00E94C77D81E00E9467
:10FC1000E57D80E00E94E57D88E00E94E57D83E54A
:10FC20000E94E57D84E50E94E57D8BE40E94E57DF0
:10FC300085E30E94E57D80E30E94E57D80E30E94EC
:10FC4000E57D8FE50E94E57D82E30E94E57D0C94D1
:10FC5000EC7DCF9390E7960FC2E0923020F0CCE09D
:10FC6000623909F0C0E063E070E00E94C77D83E084
:10FC70000E94E57D80E00E94E57D8C2F0E94E57D5D
:10FC8000CF910C94EC7D0F931F93CF93DF93EB01F7
:10FC90008A01BA016D5F7F4F0E94C77D84E10E9497
:10FCA000E57D80E00E94E57DCC0FDD1F90E080E0E7
:10FCB0008017910749F480E00E94E57DDF91CF91A4
:10FCC0001F910F910C94EC7DFC01EC0FFD1F349102
:10FCD000209100012327209300015D9BFECF3CB9BA
:10FCE0000196E6CFFC012081211102C00895A8955C
:10FCF0002091680020FDFBCF21E120936800E8956A
:10FD0000FC01108208952091680020FD0DC0DC01E7
:10FD1000AA0FBB1F83E0FD0180936800E8958091E6
:10FD2000680080FD03C00895A895EDCFA895F7CF92
:10FD30008091680086FF08C08091680080FDFCCF3C
:10FD400081E180936800E89540E057EF88EF90E00C
:10FD500020E0FA01E20FF11DE491EF3F49F531E0B7
:10FD6000320F2F3F69F401975A95009789F78091D8
:10FD7000680086FF04C081E180936800E8950895DB
:10FD8000232FE7CFA8955091680050FDFBCFFD01D0
:10FD900040936800E8955091680050FD07C02F5FC0
:10FDA0003F4FB3952817390711F3EDCFA895F3CF3F
:10FDB000B0E0A0E030E020E043E0E5CF1F93CF9338
:10FDC000DF93EB01B0E0A0E061E0A417B50778F0A5
:10FDD000880F991F45E0DC01FD0140936800E8951C
:10FDE00081E0F9018083DF91CF911F91089578819F
:10FDF0001981FD01072E112E60936800E8951124EA
:10FE000012962296E2CFA89588E181BD8FE081BD50
:10FE100008958F929F92AF92BF92CF92DF92EF920E
:10FE2000FF920F931F93CF93DF934C017B015A01F5
:10FE30006901FA011082011151C08CE35F9B43C03C
:10FE40009CB19B3109F03FC00E94037F0E94BE7DA0
:10FE5000C82FF40180830E94BE7DC8279BE1C9277B
:10FE6000F701108281830E94BE7DC827F70120819F
:10FE70003181282B318320830E94BE7DD82FC82753
:10FE800010E000E0F701808191810817190758F10F
:10FE90000E94BE7DC81342C0DE3009F03FC0F701AA
:10FEA000808191818B309140D8F580E0DF91CF91B6
:10FEB0001F910F91FF90EF90DF90CF90BF90AF9088
:10FEC0009F908F90089506B600FEB8CF96B79160C8
:10FED00096BF815009F0B2CF81E0E8CF0E94BE7D8D
:10FEE0008B31E1F7B3CF0E94BE7DC827F5010A3000
:10FEF000110530F4E00FF11F80830F5F1F4FC2CF59
:10FF000090819331D1F798012A5031092F3F310563
:10FF100009F098F72C0D3D1DF901EECF82E0C6CF18
:10FF200083E0C4CFA89584B7877F84BF88E181BD73
:10FF300011BC08950E94727E0E94927F13BE1AB86F
:0CFF400010929500F0E0E0E00995FFCF82
:040000030000F80001
:00000001FF
