:1078000011241FBE08E00EBF0FE50DBFA89584B779
:10781000877F84BF88E181BD11BC20E0A0E6B0E095
:1078200001C01D92A136B207E1F7CDB7DEB7CE5841
:10783000D109DEBFCDBF19B81BB888E18AB986E887
:1078400080BD85E083BFC257DF4F1882CE58D0403D
:10785000C357DF4F1882CD58D040C557DF4F19822C
:107860001882CB58D040F12CE12C912C10E0C12C87
:1078700028E7D22EA12C30E8B32E012F9E012F5FD6
:107880003F4FAE014F575F4FBE0165577F4FCE014F
:1078900082579F4F0E94CF3E813029F4CE018357FB
:1078A0009F4F0E945F3F823079F461E070E0C257E1
:1078B000DF4F8881CE58D0400E94CA3D80EB0E94A5
:1078C000E83D0E94EF3DD9CFCF57DF4F6881C158C7
:1078D000D040833049F0C557DF4F28813981CB58DC
:1078E000D0402115310511F440EC0DC0603151F04C
:1078F000B0F5633009F498C060F4613009F485C0D4
:10790000623091F740E0C257DF4F8881CE58D040B7
:1079100023C06530B9F3663039F7C257DF4F88812D
:10792000CE58D04025303105A9F4CE57DF4F98818D
:10793000C258D04091110EC0CD57DF4F9881C35827
:10794000D040911107C0CC57DF4F9881C458D04028
:1079500097FF7DC040EC66E00E94F33D63C0633159
:1079600009F482C0E8F4613109F4F4C0623109F02D
:10797000BBCFCE0183579F4F0E94713E0E94913E24
:1079800040E0CF57DF4F6881C158D040C257DF4F2A
:107990008881CE58D0400E94F33D9924939442C0F0
:1079A000643109F4A7C06B3109F09ECFC257DF4F95
:1079B0008881CE58D04040EC6BE12630310561F62D
:1079C000CB57DF4F1881C558D040112309F4BEC0F2
:1079D000113009F4BDC0123009F010E064E070E02D
:1079E0000E94CA3DCF57DF4F8881C158D0400E94C6
:1079F000E83D80E00E94E83D812F0E94E83D80E064
:107A00000E94E83D0E94EF3D0DC0C257DF4F8881C4
:107A1000CE58D04040EC61E02130310509F09CCFD8
:107A20000E94053E11E029CFC257DF4F8881CE5812
:107A3000D04040EC63E02230310509F08DCFCE57C5
:107A4000DF4F6881C258D0400E942C3EEBCFCC570C
:107A5000DF4FE880F980C458D040FE24EF24FE2494
:107A6000EE0CFF1C40E077CF2A30310518F440ECD3
:107A700063E149CFCE57DF4F08811981C258D0400A
:107A8000102701271027C8010A962817390779F708
:107A90000B978038910558F700FDE9CFC7018F7724
:107AA0009927892B21F7E11488E7F80600F7C6012A
:107AB0008E199F0980179107D0F2CE0183579F4FEF
:107AC0000E94713E911003C0C7010E94803E9E013A
:107AD00023573F4F402FBE016F5F7F4FC7010E946A
:107AE000A43EE00EF11E40E0CF57DF4F6881C15841
:107AF000D04009CF2430310519F040EC64E103CFC8
:107B0000CE57DF4F08811981C258D0401027012776
:107B10001027C80101978F3F910509F070F7C50143
:107B20008E199F098017910740F3CE0183579F4F0D
:107B30000E94713EA801B701C257DF4F8881CE581D
:107B4000D0400E94463EE00EF11E6CCF1EE146CFB3
:107B500015E944CFCE0183579F4F0E94713E80E4C8
:107B60008BB940E0CF57DF4F6881C158D040C25732
:107B7000DF4F8881CE58D0400E94F33D5E9BFECF00
:107B80008DCE5F9BFECFA8958CB108955D9BFECFF7
:107B90008CB908951F93CF93DF93182FEB018BE1DE
:107BA0000E94C63D812F0E94C63D8D2F0E94C63D7A
:107BB0008C2F0E94C63D7C2F7127C5E17C277D2735
:107BC000709360008EE0DF91CF911F910C94C63DC1
:107BD000909160009827909360000C94C63D80912E
:107BE00060000C94C63DCF93DF93D62FC42F62E084
:107BF00070E00E94CA3D8D2F0E94E83D8C2F0E94AC
:107C0000E83DDF91CF910C94EF3D6BE070E00E9476
:107C1000CA3D81E00E94E83D80E00E94E83D88E0A6
:107C20000E94E83D83E50E94E83D84E50E94E83D2E
:107C30008BE40E94E83D85E30E94E83D80E30E94DA
:107C4000E83D80E30E94E83D8FE50E94E83D82E345
:107C50000E94E83D0C94EF3DCF9390E7960FC2E071
:107C6000923020F0CCE0623909F0C0E063E070E0CF
:107C70000E94CA3D83E00E94E83D80E00E94E83D0A
:107C80008C2F0E94E83DCF910C94EF3D0F931F93F2
:107C9000CF93DF93EB018A01BA016D5F7F4F0E94A2
:107CA000CA3D84E10E94E83D80E00E94E83D0C0F5F
:107CB0001D1FC017D10749F480E00E94E83DDF9105
:107CC000CF911F910F910C94EF3DFE01949121965D
:107CD000809160008927809360005D9BFECF9CB9F6
:107CE000E8CFFC012081211102C00895A89507B6B4
:107CF00000FCFCCF21E127BFE895FC01108208952C
:107D000007B600FC0AC023E0DC01FD012093570008
:107D1000E89507B600FC03C00895A895F1CFA89593
:107D2000F8CFCF93DF93D0E0C0E0CE010E94803E39
:107D3000C058DF4FC11588E7D807B9F781E187BF81
:107D4000E895DF91CF9108951F93CF93DF93EC01D6
:107D500090E081E0941768F085E0DE01FD018093FA
:107D60005700E89581E0F9018083DF91CF911F9161
:107D70000895A92FB0E0FB01EA0FFB1F508111818C
:107D8000FD01052E112E80935700E89511249E5F6A
:107D9000E1CFA89588E181BD8FE081BD08958F92E4
:107DA0009F92AF92BF92CF92DF92EF92FF920F938A
:107DB0001F93CF93DF934C017B015A016901FA01B4
:107DC0001082011151C08CE15F9B43C09CB19B317B
:107DD00009F03FC00E94C93E0E94C13DC82FF40176
:107DE00080830E94C13DC8279BE1C927F70110820B
:107DF00081830E94C13DC827F70120813181282B52
:107E0000318320830E94C13DD82FC82710E000E0B5
:107E1000F701808191810817190758F10E94C13D2F
:107E2000C81341C0DE3009F03EC0F7018081918166
:107E30008B389105D0F580E0DF91CF911F910F91A4
:107E4000FF90EF90DF90CF90BF90AF909F908F907A
:107E5000089508B600FEB8CF98B7916098BF8150DA
:107E600009F0B2CF81E0E8CF0E94C13D8B31E1F74C
:107E7000B3CF0E94C13DC827F5010A30110530F487
:107E8000E00FF11F80830F5F1F4FC2CF90819331AE
:107E9000D1F798012A50310920383105A0F72C0D6F
:107EA0003D1DF901EFCF82E0C7CF83E0C5CFA89594
:107EB00084B7877F84BF88E181BD11BC08950E948B
:107EC000713E0E94573F13BE1AB810BCF0E0E0E0CC
:047ED0000995FFCF42
:040000030000780081
:00000001FF
